:020000040000FA
:100000000C9465050C948D050C948D050C948D0550
:100010000C948D050C948D050C948D050C948D0518
:100020000C948D050C948D050C948D050C948D0508
:100030000C948D050C948D050C948D050C948D05F8
:100040000C94BF170C948D050C942F180C94091860
:100050000C948D050C948D050C948D050C948D05D8
:100060000C9461180C948D05084AD73B3BCE016E69
:1000700084BCBFFDC12F3D6C74319ABD56833DDAFF
:100080003D00C77F11BED9E4BB4C3E916BAAAABE0E
:10009000000000803F05A84CCDB2D44EB93836A937
:1000A000020C50B9918688083CA6AAAA2ABE000074
:1000B00000803F0000000000003E5B4F5B3E3E6B57
:1000C0004F6B3E1C3E7C3E1C183C7E3C181C577DF2
:1000D000571C1C5E7F5E1C00183C1800FFE7C3E73E
:1000E000FF0018241800FFE7DBE7FF30483A060E50
:1000F0002629792926407F050507407F05253F5A97
:100100003CE73C5A7F3E1C1C08081C1C3E7F142206
:100110007F22145F5F005F5F06097F017F006689B1
:10012000956A606060606094A2FFA29408047E04F7
:100130000810207E201008082A1C08081C2A08081D
:100140001E101010100C1E0C1E0C30383E383006DD
:100150000E3E0E06000000000000005F00000007D9
:10016000000700147F147F14242A7F2A1223130807
:10017000646236495620500008070300001C2241E3
:10018000000041221C002A1C7F1C2A08083E080887
:100190000080703000080808080800006060002037
:1001A000100804023E5149453E00427F400072491A
:1001B0004949462141494D331814127F10274545BE
:1001C00045393C4A494931412111090736494949D4
:1001D00036464949291E0000140000004034000042
:1001E00000081422411414141414004122140802AB
:1001F000015909063E415D594E7C1211127C7F491E
:100200004949363E414141227F4141413E7F494972
:1002100049417F090909013E414151737F0808089E
:100220007F00417F41002040413F017F081422416F
:100230007F404040407F021C027F7F0408107F3EC9
:100240004141413E7F090909063E4151215E7F0936
:10025000192946264949493203017F01033F40409D
:10026000403F1F2040201F3F4038403F6314081488
:100270006303047804036159494D43007F414141C0
:100280000204081020004141417F040201020440A1
:1002900040404040000307080020545478407F2825
:1002A0004444383844444428384444287F3854541B
:1002B000541800087E090218A4A49C787F0804043E
:1002C0007800447D40002040403D007F10284400DD
:1002D00000417F40007C047804787C08040478386E
:1002E00044444438FC1824241818242418FC7C089E
:1002F000040408485454542404043F44243C40401B
:10030000207C1C2040201C3C4030403C44281028CD
:10031000444C9090907C4464544C44000836410016
:100320000000770000004136080002010204023C90
:100330002623263C1EA1A161123A4040207A38545F
:1003400054555921555579412254547842215554D8
:10035000784020545579400C1E527212395555552B
:1003600059395454545939555454580000457C4116
:100370000002457D420001457C407D1211127DF056
:10038000282528F07C545545002054547C547C0A80
:10039000097F4932494949323A4444443A324A4849
:1003A00048303A4141217A3A42402078009DA0A04D
:1003B0007D3D4242423D3D4040403D3C24FF24249F
:1003C000487E4943662B2FFC2F2BFF0929F620C0BE
:1003D000887E090320545479410000447D4130480F
:1003E000484A32384040227A007A0A0A727D0D1952
:1003F000317D2629292F28262929292630484D40B4
:1004000020380808080808080808382F10C8ACBAAF
:100410002F102834FA00007B000008142A1422222E
:10042000142A14085500550055AA55AA55AAFF5577
:10043000FF55FF000000FF00101010FF00141414FF
:10044000FF001010FF00FF1010F010F0141414FC47
:10045000001414F700FF0000FF00FF1414F404FC64
:10046000141417101F10101F101F1414141F001045
:100470001010F0000000001F101010101F101010BE
:1004800010F010000000FF101010101010101010CD
:10049000FF10000000FF140000FF00FF00001F100D
:1004A000170000FC04F414141710171414F404F4C7
:1004B0000000FF00F714141414141414F700F714B8
:1004C0001414171410101F101F141414F414101007
:1004D000F010F000001F101F0000001F14000000AB
:1004E000FC140000F010F01010FF10FF141414FFA3
:1004F000141010101F00000000F010FFFFFFFFFF9E
:10050000F0F0F0F0F0FFFFFF0000000000FFFF0F31
:100510000F0F0F0F3844443844FC4A4A4A347E02D5
:10052000020606027E027E02635549416338444456
:100530003C04407E201E2006027E020299A5E7A50B
:10054000991C2A492A1C4C7201724C304A4D4D307C
:100550003048784830BC625A463D3E494949007EA1
:100560000101017E2A2A2A2A2A44445F4444405138
:100570004A444040444A51400000FF0103E080FFEC
:10058000000008086B6B083612362436060F090F78
:1005900006000018180000001010003040FF010194
:1005A000001F01011E00191D1712003C3C3C3C00BD
:1005B00000000000000103070F1F3F7F0080C0E024
:1005C000F0F8FCFEDB40A4A62EAF2000A1C8D300AB
:1005D000408DAED580A80000600000000000000043
:1005E00000000000000000E000000000000000002B
:1005F000000000000001E00000000000000000001A
:100600000000000001F000000000000000000000F9
:1006100000000003F00000000000000000000000E7
:10062000000007F0000000000000000000000000D3
:100630000007F800000000000000000000000000BB
:100640000FF800000003C0007E000001E0007F0FF3
:10065000F800000003C000FE000001E000FFEFF81A
:1006600000000003C000FE000001E000FFFFF800F2
:10067000000003C000F00000000F007FFE7FC000FC
:100680000003C000F00000000F003FFE7FF83FF1C4
:10069000FBCFFCFEF3BC3DEFE01FFE7FFF7FFBFFC7
:1006A000DFFEFEFFBC3DEFE01FC6FFFF7FFBFFDF6D
:1006B000FEFEFFBC3DEFE00FE3C7FE787BC3DE1E0E
:1006C000F0FFBC3DEF0007FF87FC787BC3DE1EF028
:1006D000F83C3DEF0001FFFFF0007BC3C01EF0F0CF
:1006E0003C3DEF0001F37FE03FFBC3CFFEF0F03C69
:1006F0003DEF0003E33F807FFBC3DFFEF0F03C3DB6
:10070000EF0007E73C00787BC3DE1EF0F03C3DEFD6
:100710000007FFBE00787BC3DE1EF0F03C3DEF001B
:1007200007FFFE00787BC3DE1EF0F03C3DEF000FBC
:10073000FFFE007FFBFFDFFEF0F03FFDEFE00FFF6D
:10074000FF007FFBFFDFFEF0F03FFDEFE00FF9FF62
:10075000003E79F9CF9EF0F01F3DE7E01FF1FF006A
:1007600000000000000000000000001F80FF007F6C
:10077000FFFFFFFFFFFFFFFFFFE01C007F007FFF89
:10078000FFFFFEB46D888D18E000001F007FFFFFA3
:10079000FFFE95AD7DB577E000000F007FFFFFFF06
:1007A000FEA5AD9D8D19E0000006007FFFFFFFFE56
:1007B000B5ADEDB57EE00000000000018000000056
:1007C00000000000000003800000000000000000A6
:1007D0000007C000000000000000000007C000008B
:1007E000000000000000000FC0000000000000003A
:1007F00000001FE00000000000000000001FE000FB
:1008000000000000000000003FE0000000000000C9
:100810000000003FF00000000000000000007FF03A
:10082000000000000000001FF87FF0000000000042
:1008300000003FFE7FF0000000000000003FFF7F4F
:10084000F0000000000000001FFFFBE000000000BF
:100850000000000FFFF9FFC00000000000000FFFC4
:10086000F9FFF800000000000007FFF1FFFF0000A3
:100870000000000003FC73FFFF8000000000000187
:10088000FE3FFFFF80000000000000FF1E0FFF0082
:100890000000000000007FFE1FFC000000000000C0
:1008A000003FFFFFF8000000000000000FDFFFE046
:1008B000000000000000001F19FFC0000000000041
:1008C00000003F3CFF00000000000000007E7CF8BC
:1008D00000000000000000007FFE7C00000000001F
:1008E000000000FFFFFC0000000000000000FFFF10
:1008F000FE0000000000000000FFFFFE00000000FE
:1009000000000001FFEFFE0000000000000001FFFA
:10091000CFFE0000000000000003FF07FE00000003
:100920000000000003FC07FE0000000000000003C0
:10093000F003FE00000000000000018000FE000047
:1009400000000000000000007E0000000000000029
:100950000000003E000000000000000000000C004D
:100960000000000000078000FC000003C000000041
:10097000078001FC000003C0000000078001FC00AC
:100980000003C0000000078001E00000001E00001E
:1009900000078001E00000001E007FE3F79FF9FDE3
:1009A000E7787BDFC0FFF7FFBFFDFDFF787BDFC08F
:1009B000FFF7FFBFFDFDFF787BDFC0F0F787BC3D91
:1009C000E1FF787BDE00F0F787BC3DE1F0787BDE6D
:1009D0000000F787803DE1E0787BDE007FF7879FAE
:1009E000FDE1E0787BDE00FFF787BFFDE1E0787B8B
:1009F000DE00F0F787BC3DE1E0787BDE00F0F787B2
:100A0000BC3DE1E0787BDE00F0F787BC3DE1E078BB
:100A10007BDE00FFF7FFBFFDE1E07FFBDFC0FFF7FC
:100A2000FFBFFDE1E07FFBDFC07CF3F39F3DE1E032
:100A30003E7BCFC00000000000000000000000FF6F
:100A4000FFFFFFFFFFFFFFFFFFC0FFFFFFFFFD688E
:100A5000DB111A31C0FFFFFFFFFD2B5AFB6AEFC00D
:100A6000FFFFFFFFFD4B5B3B1A33C0FFFFFFFFFDA6
:100A70006B5BDB6AFDC000000000240027002A0039
:100A800000000000250028002B00040404040404D6
:100A9000040402020202020203030303030301022D
:100AA00004081020408001020408102001020408FC
:100AB00010200000000800020100000304070000ED
:100AC00000000000000080191F1D11241FBECFEF81
:100AD000D8E0DEBFCDBF11E0A0E0B1E0ECE0F4E48F
:100AE00002C005900D92AE35B107D9F725E0AEE50D
:100AF000B1E001C01D92AB3DB207E1F715E0C4E6DD
:100B0000D5E004C02197FE010E94C220C336D10760
:100B1000C9F70E94031A0C94F9210C94000008955F
:100B200090E0FC01EE54F54F2491FC01E256F54FA4
:100B30003491FC01E657F54FE491EE23C9F02223EE
:100B400039F0233001F1A8F4213019F1223029F1D4
:100B5000F0E0EE0FFF1FE058F54FA591B4918FB76D
:100B6000F894EC91611126C030953E233C938FBFE1
:100B700008952730A9F02830C9F0243049F7809132
:100B800080008F7D03C0809180008F7780938000EC
:100B9000DFCF84B58F7784BDDBCF84B58F7DFBCF6E
:100BA0008091B0008F778093B000D2CF8091B00059
:100BB0008F7DF9CF3E2BDACFCF93DF9390E0FC010E
:100BC000E256F54F24918657954FFC018491882376
:100BD000D1F090E0880F991FFC01EA58F54FA591DC
:100BE000B491FC01E058F54FC591D49161110EC04C
:100BF0009FB7F8948C91E22FE0958E238C932881F7
:100C0000E223E8839FBFDF91CF9108958FB7F894D7
:100C1000EC91E22BEC938FBFF6CF2091000190E492
:100C2000299F900111248E50822B80937C0080910B
:100C30007A00806480937A0080917A0086FDFCCFF0
:100C4000809178009091790008953FB7F894809151
:100C5000E6049091E704A091E804B091E90426B578
:100C6000A89B05C02F3F19F00196A11DB11D3FBFE4
:100C7000BA2FA92F982F8827BC01CD01620F711DB3
:100C8000811D911D42E0660F771F881F991F4A95AD
:100C9000D1F708958F929F92AF92BF92CF92DF9239
:100CA000EF92FF924B015C010E9425066B017C01D3
:100CB0000E9425066C197D098E099F09683E7340C4
:100CC00081059105A8F321E0821A9108A108B108D5
:100CD00088EEC80E83E0D81EE11CF11C811491043B
:100CE000A104B10429F7FF90EF90DF90CF90BF905F
:100CF000AF909F908F90089508950895AF92BF92FE
:100D0000CF92DF92EF92FF920F931F93CF93DF93D7
:100D10006C017B018B01040F151FEB015E01AE1806
:100D2000BF08C017D10759F06991D601ED91FC9128
:100D30000190F081E02DC6010995892B79F7C50155
:100D4000DF91CF911F910F91FF90EF90DF90CF90A7
:100D5000BF90AF900895FC01538D448D252F30E056
:100D6000842F90E0821B930B541710F0CF960895B8
:100D700001970895FC01918D828D981761F0A28DE5
:100D8000AE0FBF2FB11D5D968C91928D9F5F9F73AB
:100D9000928F90E008958FEF9FEF0895FC01918D61
:100DA000828D981731F0828DE80FF11D858D90E0CE
:100DB00008958FEF9FEF0895FC01918D228D892F6B
:100DC00090E0805C9F4F821B91098F739927089553
:100DD0008EEE94E00E94DC0621E0892B09F420E0ED
:100DE000822F089580E090E0892B29F00E94E80688
:100DF00081110C9400000895FC01A48DA80FB92F57
:100E0000B11DA35ABF4F2C91848D90E001968F7332
:100E10009927848FA689B7892C93A089B1898C9151
:100E2000837080648C93938D848D981306C00288A0
:100E3000F389E02D80818F7D80830895EF92FF926A
:100E40000F931F93CF93DF93EC0181E0888F9B8DED
:100E50008C8D98131AC0E889F989808185FF15C0A7
:100E60009FB7F894EE89FF896083E889F9898081CA
:100E70008370806480839FBF81E090E0DF91CF9199
:100E80001F910F91FF90EF900895F62E0B8D10E0BB
:100E90000F5F1F4F0F731127E02E8C8D8E110CC02A
:100EA0000FB607FCFACFE889F989808185FFF5CF75
:100EB000CE010E94FC06F1CFEB8DEC0FFD2FF11D52
:100EC000E35AFF4FF0829FB7F8940B8FEA89FB89B2
:100ED00080818062CFCFCF93DF93EC01888D882310
:100EE000B9F0AA89BB89E889F9898C9185FD03C08D
:100EF000808186FD0DC00FB607FCF7CF8C9185FF72
:100F0000F2CF808185FFEDCFCE010E94FC06E9CFB4
:100F1000DF91CF910895EF92FF920F931F93CF939C
:100F2000DF93EC01EC80FD806E157F050CF070C046
:100F300057FF04C0240F351F50E040E08E819F8191
:100F4000FA01E20FF31F8E179F071CF49C01241B6C
:100F5000350B121613060CF05BC0922F842F86956A
:100F6000869586958E9DD0018F9DB00D11246A0FB8
:100F70007B1FAF8DB8A1A60FB71F477049F188E05E
:100F8000841B482F682F70E0FB01E454FA4FE49172
:100F9000281708F063C0621B71092FEF30E002C010
:100FA000359527956A95E2F7E2230130110539F06E
:100FB000B0F10230110561F58C91E82702C08C91E7
:100FC000E82BEC93941720F12C813D81A20FB31FE5
:100FD000E92FE41BE83078F00230110521F58E2F5F
:100FE0009C9190959C932C813D81A20FB31F8850BA
:100FF0008830B0F7E770EE2359F0F0E0EC54FA4F88
:10100000E49101301105F9F010F10230110519F1E8
:10101000DF91CF911F910F91FF90EF900895E09590
:101020008C91E823CECF81E00115110509F480E011
:1010300081959E2F8C932C813D81A20FB31F9850D8
:101040009830C0F7D7CF8C91E82BEC93E1CFE095A7
:101050008C91E823FACF8C91E827F7CF0130110566
:1010600009F4ADCFE0F20230110509F4A5CFAE0DC1
:10107000BF1DAECF0F931F93CF93DF9377FF04C0B5
:10108000260F371F70E060E0DC011496CD91DC91F3
:10109000FB01E20FF31FCE17DF071CF49E01261B96
:1010A000370B121613064CF5FA0157FD3796A3E0DD
:1010B000F595E795AA95E1F7EC9FD001ED9FB00D6E
:1010C000FC9FB00D11246A0F7B1FDC015F96ED9130
:1010D000FC91E60FF71F4770552781E090E001C0B3
:1010E000880F4A95EAF7482F0130110559F0A8F00A
:1010F0002E0F3F1F02301105E1F0DF91CF911F91BC
:101100000F9108952E0F3F1FE217F307B1F381915E
:10111000DF011197842B8C93F7CF80952E0F3F1F03
:10112000E217F30751F39191DF01119798239C93F4
:10113000F7CFE217F30709F38191DF0111978427B5
:101140008C93F7CF0F931F93FA01DC0156964C91C5
:1011500056974230E9F04330A1F1413061F51496E1
:101160004D915C91DA01AE1BBF0BFD01E21BF30B4D
:1011700077FD0BC0DC0116964D915C9164177507E5
:1011800024F4AB01BF010E943A081F910F9108950A
:1011900014964D915C91DA01A61BB70BBD0161500D
:1011A0007109DC0116964D915C91DA01AE1BBF0B03
:1011B000FD01E21BF30B77FDE8CFAF010E948B0727
:1011C000E4CF16964D915C91DA01A61BB70BBD01D9
:1011D00061507109CDCF0F931F93FA01DC01569630
:1011E0004C9156974230A9F0433091F1413019F5B6
:1011F00014964D915C91DA01AE1BBF0BFD01319746
:10120000F7FD04C0AB01BF010E948B071F910F9136
:10121000089514964D915C91DA01A61BB70BBD01A0
:10122000DC0116964D915C91DA01AE1BBF0BFD01FE
:101230003197621B730BF7FDE9CFDC0116964D91D8
:101240005C91E417F50714F7AF010E943A08DECF6E
:1012500016964D915C91DA01A61BB70BBD01621B7E
:10126000730BCECFFC0177FD64C080859185681734
:1012700079070CF05EC057FD5CC0828593854817E6
:1012800059070CF056C086898230B1F0833029F1BD
:10129000813041F484819581841B950BAB01BC01A5
:1012A000615071092130310509F108F443C0223041
:1012B000310509F463C0089584819581DC01A61B82
:1012C000B70BBD016150710986819781DC01A41BB8
:1012D000B50BAD0141505109E5CF86819781861B41
:1012E000970BBA01AC0141505109DCCFCA0157FD3F
:1012F0000796A3E095958795AA95E1F7A481B58116
:101300008A9F90018B9F300D9A9F300D1124620FA0
:10131000731F078CF0A1E02DE60FF71F47705527CC
:1013200021E030E001C0220F4A95EAF78081822B4C
:1013300080830895CA0157FD079633E095958795F8
:101340003A95E1F7A481B5818A9F90018B9F300D7A
:101350009A9F300D1124620F731F078CF0A1E02DAE
:10136000E60FF71F4770552781E090E001C0880F16
:101370004A95EAF7809590818923DACFCA0157FD13
:10138000079623E0959587952A95E1F7A481B58185
:101390008A9F90018B9F300D9A9F300D1124620F10
:1013A000731F078CF0A1E02DE60FF71F477055273C
:1013B00021E030E001C0220F4A95EAF780818227C0
:1013C000B7CF08958CBD9DBD08950895FC0163704D
:1013D000668B8481958126813781613039F0633055
:1013E00029F0918780873387228708953187208766
:1013F0009387828708952F923F924F925F926F92C8
:101400007F928F929F92AF92BF92CF92DF92EF9294
:10141000FF920F931F93CF93DF93CDB7DEB76A97F9
:101420000FB6F894DEBF0FBECDBF9A8F898F7A8337
:1014300069834A01D22E18870F833701BC2CDC0147
:1014400059962D913C915A972115310509F015C1F6
:1014500018968D919C911997681779070CF0D7C150
:101460001A968D919C91481759070CF0D0C14C2CBD
:10147000512CB6E0CB9E600D711D11247C876B87CB
:10148000161617060CF0C3C1EA2DF0E0FA87E987BB
:1014900093E0EE0FFF1F9A95E1F7F88BEF87CF01EE
:1014A000840F951F181619060CF0B1C1A98DBA8DBD
:1014B00058968C91811104C0BFEABD1508F4D394ED
:1014C000A98DBA8DED91FC9111970284F385E02DE1
:1014D000CD010995B5E0DB9EC0011124E981FA81B7
:1014E000FC83EB83312C212C9C012C543F4F388FF3
:1014F0002F8B4A2D50E05E8B4D8BEF89F88DE20DDE
:10150000F31D44919E828D82D12CC12C69817A81F8
:10151000620D731D7A8B698B842F90E09C8B8B8B73
:10152000E98DFA8DA081B18140FF82C0F1E0BF1248
:101530006FC0AF126DC01C96ED91FC912F81388564
:10154000A4014C0D5D1D69897A89898D9A8D099553
:10155000EB89FC89F595E7954E2F5FEFC51AD50A03
:101560006D817E818D899E89680F791F7E836D8351
:1015700098E0C916D10481F6AFEF2A1A3A0AEB8136
:10158000FC81E40DF51DFC83EB83F5E02F1631049F
:1015900009F0B3CF2F81388526153705B9F0A98D0D
:1015A000BA8DED91FC91B1E0BB1257C0AB1255C0A2
:1015B00069817A816B5F7F4F0088F189E02D83011B
:1015C00028E030E0A401898D9A8D0995A98DBA8D06
:1015D000ED91FC9111970688F789E02DCD016A966F
:1015E0000FB6F894DEBF0FBECDBFDF91CF911F9134
:1015F0000F91FF90EF90DF90CF90BF90AF909F90B2
:101600008F907F906F905F904F903F902F900994B4
:101610001E96ED91FC91EF80F88409851A85920160
:101620004D815E816B817C81898D9A8D099590CFEA
:101630002F8138852615370509F48ACF31E0B3129A
:1016400007C0A31205C01C96ED91FC91930178CFC1
:101650001E96ED91FC917301E0CF6B857C8564193A
:1016600075090684F785E02D73010F8518899201AD
:10167000A401898D9A8D0995A9CFF9013496949189
:10168000329745915491D91AB7E0DB9E400D511D18
:101690001124F901259134913C8B2B8BFA01259073
:1016A0003490FA013296749031963491398B329697
:1016B00064903196449041E04C1518F04A1508F0BA
:1016C0007FC0662D062C000C770B7C836B83842DEA
:1016D000042C000C990B9E838D83A98DBA8DED91FE
:1016E000FC9111970284F385E02DCD010995512CD1
:1016F000D12CC12CEA2DF0E0FA87E9872B2D30E0C0
:101700003C872B87A401440D511D47FC5A95588FE7
:101710004F8B69817A81660D711D67FC7A957E8792
:101720006D877989C71608F051CF2C2D30E04D8197
:101730005E81420F531FA985BA854A9FC0014B9F06
:10174000900D5A9F900D1124FC01E80DF91DF88BA6
:10175000EF87852D612C4F89588D420F531F5E8B6B
:101760004D8B671408F050C044244394480E877092
:1017700041F4C1010196EB89FC89E20DF31DD4907F
:101780001C01D7FE19C0A98DBA8DED91FC91662D73
:1017900070E0B1E0BB1219C0AB1217C02D853E85B9
:1017A000620F731F0484F585E02D2F8138854D89E4
:1017B0005E89898D9A8D0995DD0C6394842DD1CF36
:1017C0001E821D821C821B8288CF4B815C81640F2C
:1017D000751FAB85BC856A9FC0016B9F900D7A9F7A
:1017E000900D112469817A81680F791F0684F7852D
:1017F000E02DEF80F88409851A859D014F85588971
:10180000898D9A8D0995D8CF570CC3948ACF6A9643
:101810000FB6F894DEBF0FBECDBFDF91CF911F9101
:101820000F91FF90EF90DF90CF90BF90AF909F907F
:101830008F907F906F905F904F903F902F90089582
:101840008F929F92AF92CF92EF92FF920F931F933E
:10185000CF93DF93EC01262F898D9A8D009709F0A5
:1018600051C06A30D1F41D861C868D8948E0849F62
:10187000900111248E859F85820F931F9F878E87ED
:1018800081E090E0DF91CF911F910F91FF90EF9059
:10189000CF90AF909F908F9008956D3089F3CC8852
:1018A000AD888F898823C1F08C859D8536E0C39EE5
:1018B000800D911D1124488559854817590764F4F6
:1018C0004E855F851D861C8638E0A39EC0011124CD
:1018D000840F951F9F878E87EA88FB88088919895E
:1018E0004E855F856C857D85CE010E94FB092C8924
:1018F0008C859D8546E0249F800D911D11249D8738
:101900008C87BECF6A3069F41D861C86FC01389630
:10191000E4912D898E859F85E29F800D911D112474
:10192000ADCF6D3009F4ACCFFC0134963491631720
:1019300008F4A6CF3296E491E61708F4A1CFFC0193
:10194000329685909490462F431B342F47E0349F66
:10195000800C911C1124F401329634913196E4915B
:101960003323A9F1EE2399F1CC88F4013596E49163
:10197000AD884F89442301F10E2E000CFF0BE30FBD
:10198000F11DCE9EA001CF9E500D11246C857D854A
:10199000460F571F68857985641775076CF44E8567
:1019A0005F851D861C86FC013896E491AE9E400D35
:1019B000511D11245F874E87EA88FB8808891989A1
:1019C0004E855F856C857D85CE010E94FB09F40103
:1019D0003496E4912C898C859D85E29F800D911D24
:1019E00011248DCF6F927F928F929F92AF92BF9270
:1019F000CF92DF92EF92FF920F931F93CF93DF93DB
:101A0000EC016B015A0139014801E881F981028436
:101A1000F385E02D0995E881F9810288F389E02DAD
:101A200087019301A501B601CE010995A501480DD5
:101A3000591D41505109E881F9810288F389E02D4F
:101A40009301B601CE010995E881F9810088F189F9
:101A5000E02D9401A501B601CE010995C60CD71C55
:101A6000B60161507109E881F9810088F189E02DA2
:101A70009401A501CE010995E881F9810688F789CD
:101A8000E02DCE01DF91CF911F910F91FF90EF904C
:101A9000DF90CF90BF90AF909F908F907F906F908E
:101AA00009946F927F928F929F92AF92BF92CF9242
:101AB000DF92EF92FF920F931F93CF93DF935C011E
:101AC000EB016A01490138018701DC01ED91FC91CC
:101AD0006217730719F5641675062CF0962D872D7D
:101AE0003A01C92ED82E9601261937092F5F3F4F8C
:101AF000048CF58DE02DA301BE01C5010995DF9190
:101B0000CF911F910F91FF90EF90DF90CF90BF90FA
:101B1000AF909F908F907F906F90089546155705D6
:101B200091F42617370724F0892D4B01C22FD82FA7
:101B30009E01281939092F5F3F4F068CF78DE02D44
:101B4000A601B401DACF0284F385E02D0995D50111
:101B5000ED91FC910488F589E02D83019401A601A3
:101B6000BE01C5010995D501ED91FC910688F78963
:101B7000E02DC501DF91CF911F910F91FF90EF9064
:101B8000DF90CF90BF90AF909F908F907F906F909D
:101B90000994EF92FF920F931F93DC011A960D9117
:101BA0001C911B9718962D913C911997ED91FC91E2
:101BB00000A0F1A1E02D7B0150E040E070E060E08A
:101BC00009951F910F91FF90EF9008954F925F92AA
:101BD0006F927F928F929F92AF92BF92CF92DF923D
:101BE000EF92FF920F931F93CF93DF936C012B0122
:101BF0005A0139014801DC01ED91FC910284F38521
:101C0000E02D0995E201640C751CD601ED91FC9163
:101C1000C615D7055CF40088F189E02D8701940191
:101C2000A501BE01C60109952196EFCF0688F78967
:101C3000E02DC601DF91CF911F910F91FF90EF90A2
:101C4000DF90CF90BF90AF909F908F907F906F90DC
:101C50005F904F9009948F929F92AF92BF92CF92D4
:101C6000DF92EF92FF920F931F93CF93DF93EC01DC
:101C70005B014A016901E881F9810284F385E02D65
:101C8000099595012C0D3D1D21503109E881F981FF
:101C90000488F589E02D78018401A401B501CE0105
:101CA0000995E881F9810688F789E02DCE01DF9159
:101CB000CF911F910F91FF90EF90DF90CF90BF9049
:101CC000AF909F908F9009948F929F92AF92BF9206
:101CD000CF92DF92EF92FF920F931F93CF93DF93F8
:101CE000EC015B014A0169017801E881F981028414
:101CF000F385E02D0995C80CD91C86010150110906
:101D0000E881F9810488F589E02D9501A401B501E8
:101D1000CE010995E881F9810688F789E02DCE0189
:101D2000DF91CF911F910F91FF90EF90DF90CF90B7
:101D3000BF90AF909F908F900994EF92FF920F9376
:101D40001F93DC01ED91FC9100A0F1A1E02D09951C
:101D50001F910F91FF90EF9008950F931F93DC0157
:101D6000ED91FC91068CF78DE02D09951F910F9157
:101D700008950F931F93DC01ED91FC91048CF58D78
:101D8000E02D09951F910F910895DC01ED91FC91D3
:101D90000084F185E02D09943F924F925F926F92FB
:101DA0007F928F929F92AF92BF92CF92DF92EF92EB
:101DB000FF920F931F93CF93DF935C017B014A0146
:101DC0006901390187E0680E711C93E0759467948E
:101DD0009A95E1F72B01400E511E10E000E0312CE6
:101DE000D0E0C0E0CE0187709927330C892B59F4DD
:101DF000FE0183E0F595E7958A95E1F7E00FF11F85
:101E0000E80DF91D349037FE0AC021E030E0A7014B
:101E1000B5016C0F7D1F87E995E00E94C50E2196E4
:101E2000CC16DD06F9F68FEFE81AF80A060D171D35
:101E3000E414F504A9F6DF91CF911F910F91FF9063
:101E4000EF90DF90CF90BF90AF909F908F907F905A
:101E50006F905F904F903F9008952F923F924F92D6
:101E60005F926F927F928F929F92AF92BF92CF922A
:101E7000DF92EF92FF920F931F93CF93DF9300D0E7
:101E800000D000D0CDB7DEB73C016A013E832D8380
:101E9000FC82EB825801A41AB50AB7FE03C0B194C4
:101EA000A194B1088D809E80861A970A97FE03C080
:101EB0009194819491088A149B045CF0902F812F57
:101EC0000D811E819D838E839C2D8D2D6B01692F2D
:101ED000782F0C151D055CF09D818E817E836D83AE
:101EE000692F782F902F812F8601C92ED82E1601A9
:101EF000201A310A2B012D813E81421A530A57FEC6
:101F000003C0519441945108710137FE03C03FEF63
:101F1000E31AF30AF594E7948D819E81861797075B
:101F20005CF5A1E0B0E0BA83A983C016D1064CF1FC
:101F3000D301ED91FC910484F585E02D2B813C814A
:101F4000A8016D817E818A149B041CF04D815E8105
:101F5000B801C3010995E418F508F7FE0AC02D8100
:101F60003E8189819A81280F391F3E832D83E20C9F
:101F7000F31C0F5F1F4FD9CF2FEF3FEF3A83298319
:101F8000D4CF26960FB6F894DEBF0FBECDBFDF913B
:101F9000CF911F910F91FF90EF90DF90CF90BF9066
:101FA000AF909F908F907F906F905F904F903F90F9
:101FB0002F900895089520918E02260F3327331F06
:101FC00021323105ECF42091B202FC0190E080E076
:101FD000243069F082E00895A0918E022191AC0135
:101FE00042595D4FA40FB52FB11D2C930196861752
:101FF00098F380918E02680F60938E0280E00895BE
:1020000081E008951092B20281E08093B4021092B0
:10201000B30261E082E10E94900561E083E10E94E9
:102020009005E9EBF0E080818E7F808380818D7F59
:10203000808388E48093B80085E48093BC00089591
:10204000CF93DF9391E090936D028823B9F0C09114
:10205000B800D091BA008091BC008A7B8093BC000C
:1020600060E082E10E94900560E083E10E949005BB
:102070000E940210D093BA00C093B800DF91CF91B4
:102080000895E091DE028091DD02E81730F4F0E07F
:10209000E85BFD4F808190E008958FEF9FEF0895FA
:1020A0009091DE028091DD022FEF3FEF981748F408
:1020B000E92FF0E0E85BFD4F208130E09F5F9093D7
:1020C000DE02C90108958091DD029091DE02891B34
:1020D000990B0895CF92DF92EF92FF920F931F9387
:1020E000CF93DF937C01CB018A012091ED04222361
:1020F00089F0EB016B01C40ED51ECC15DD0569F02E
:102100006991D701ED91FC910190F081E02DC7011B
:102110000995F3CF642F0E94DB0FC801DF91CF91A7
:102120001F910F91FF90EF90DF90CF900895CF9384
:10213000DF931F92CDB7DEB769832091ED04222390
:10214000F9F02091EA04203258F021E030E0FC015F
:102150003383228390E080E00F90DF91CF91089548
:102160008091EB04E82FF0E0E85DFD4F99819083CA
:102170008F5F8093EB048093EA0481E090E0ECCFE2
:1021800061E0CE0101960E94DB0FF7CFCF92DF9284
:10219000EF92FF920F931F93CF93DF93D091EA04B6
:1021A00081E0D13208F09CC0C091EC040E94250669
:1021B0006B017C018091B20281116CC082E080933E
:1021C000B20281E08093B4028FEF8093B10210924B
:1021D000D602D093D502A8E2B2E0E5EBF2E080E0CF
:1021E000D8138DC01092D7028091D702CC0FC82B84
:1021F000C093D7028091B302813009F084C010925D
:10220000B3020E9425066B017C018091D702809366
:10221000BB008091690290916A02A0916B02B0911B
:102220006C02892B8A2B8B2BA1F00E942506009132
:10223000690210916A0220916B0230916C026C1954
:102240007D098E099F09061717072807390708F423
:1022500042C08091BC0083FDD8CF85EC8093BC0048
:102260000E9425066B017C018091B202823009F444
:102270004CC08091B1028F3F09F469C08091B102D6
:10228000803209F466C08091B102803309F463C0E2
:1022900084E026C08091690290916A02A0916B024D
:1022A000B0916C02892B8A2B8B2B09F483CF0E946F
:1022B00025060091690210916A0220916B0230910B
:1022C0006C026C197D098E099F09061717072807EC
:1022D000390708F06FCF809168020E94201085E0D6
:1022E0001092EB041092EA041092ED04DF91CF916A
:1022F0001F910F91FF90EF90DF90CF9008959D91E7
:1023000091938F5F6DCF85EEA9CF809169029091F7
:102310006A02A0916B02B0916C02892B8A2B8B2BE5
:1023200009F4A2CF0E9425060091690210916A0269
:1023300020916B0230916C026C197D098E099F0906
:10234000061717072807390708F08ECFC4CF80E09B
:10235000C7CF82E0C5CF83E0C3CFEF92FF920F9348
:102360001F93CF93DF937C01C62F8091B40590918A
:10237000B505009709F459C02091B80531E03093B4
:10238000ED042093EC041092EB041092EA04DC01BB
:10239000ED91FC910190F081E02D60E009958701BD
:1023A000EE24E394F12CD1E0C1508091B4059091DA
:1023B000B505CF3F91F1B0E2EB16F104D8F00E94E1
:1023C000C6108091B4059091B5052091B805D093C1
:1023D000ED042093EC041092EB041092EA04DC016B
:1023E000ED91FC910190F081E02D60E00995EE24E3
:1023F000E394F12C8091B4059091B505F8016491B6
:10240000DC01ED91FC910190F081E02D0995BFEF89
:10241000EB1AFB0A0F5F1F4FC7CFDF91CF911F91C0
:102420000F91FF90EF900C94C610E091C405F091CD
:10243000C50590818091CA05809589238083F70125
:10244000C15008F43AC044918091B2059091B3050F
:10245000892B41F04EBD00000DB407FEFDCF8EB5B7
:102460003196EECF28E030E090E8A091C005B09121
:10247000C1058091C805542F5923D9F05C91852B53
:102480008C93A091C205B091C3058C915091C90560
:10249000852B8C93A091C205B091C3055C9180916E
:1024A000C905809585238C93969521503109E9F6CD
:1024B000D7CF5C9180958523E3CFDF91CF911F919A
:1024C0000F91FF90EF9008951F93CF93DF93EC014E
:1024D0008D8D9E8D009721F1162F29A131E030932B
:1024E000ED042093EC041092EB041092EA04DC015A
:1024F000ED91FC910190F081E02D60E009958D8DCA
:102500009E8DDC01ED91FC910190F081E02D612F19
:1025100009958D8D9E8DDF91CF911F910C94C610E2
:10252000ADA5BEA59C918BA9809589238C938B8D9D
:102530009C8D892B51F06EBD00000DB407FEFDCFC0
:102540008EB5DF91CF911F91089528E030E090E89B
:10255000A9A5BAA589A9462F4923A9F04C91842B96
:102560008C93ABA5BCA58C914AA9842B8C93ABA56D
:10257000BCA54C918AA9809584238C939695215073
:10258000310931F7DECF4C9180958423E9CF1F9339
:10259000CF93DF93EC01162F8D8D9E8D892BB1F19A
:1025A0002DA93EA94FA958AD60E074E284EF90E0F8
:1025B0000E948120205131094109510956954795C2
:1025C000379527952093B80066EA111167EACE0186
:1025D0000E9464128D8D9E8D892B41F129AD3AADFB
:1025E0004BAD5CAD60E074E284EF90E00E9481202E
:1025F000205131094109510956954795379527953D
:102600002093B800DF91CF911F9108958B8D9C8D01
:10261000892B21F08EAD9FAD0E94E209EFA5F8A9AC
:1026200090818CA9809589238083CECFEFA5F8A9CE
:1026300080819CA9892B8083E5CF90E080E008957C
:10264000CF92DF92EF92FF92CF93DF93EC01CB0119
:10265000813024E0920714F09450FACF813023E0C7
:102660009207BCF0E0E0F4E0E81BF90BEE0FFF1F6F
:10267000E152FD4F60817181072E000C880B990B90
:102680000E947E1E6B017C01BE01DD0F880B990B41
:102690001BC0813022E0920764F1880F991FFC0172
:1026A000E152F14060817181072E000C880B990B7B
:1026B0000E947E1E6B017C01662777276C1B7D0BB9
:1026C000072E000C880B990B0E947E1E9B01AC010B
:1026D000C701B6010E94A11F20E030E04AE754E4A0
:1026E0000E94D41DDF91CF91FF90EF90DF90CF90AB
:1026F0000895813021E092074CF0E0E0F2E0E81B21
:10270000F90BEE0FFF1FE152FD4FCCCF880F991F41
:10271000FC01AECF2F923F924F925F926F927F92C9
:102720008F929F92AF92BF92CF92DF92EF92FF92E1
:102730000F931F93CF93DF93CDB7DEB7CB57D1095C
:102740000FB6F894DEBF0FBECDBFE1969FAF8EAF40
:10275000E197AD965FAF4EAFAD971A821982FE0139
:102760003396CE018B599F4F11921192E817F907BA
:10277000D9F79E012F5F3F4FE9963FAF2EAFE99704
:10278000A6966FAFA697A7967FAFA797A7960EAD11
:102790001FADA7971901C12C84E0D82EE12CF12C94
:1027A000E1968EAD9FADE1978C599F4FE7969FAF15
:1027B0008EAFE797E196EEADFFADE197A996FFAF3B
:1027C000EEAFA997412C512C3201C301B20122E393
:1027D00030E040E050E00E94A320E5962CAF3DAFF2
:1027E0004EAF5FAFE597A996EEADFFADA9972191EA
:1027F0003191A996FFAFEEAFA997AF963FAF2EAF3D
:10280000AF97E3966EAD7FADE397C9010E942013A9
:102810004B015C01F10162817381072E000C880B72
:10282000990B0E947E1EA50194010E942F1D0E94FB
:10283000461EF10173836283E3966EAD7FADE3972D
:102840007395AF968EAD9FADAF970E9420134B014D
:102850005C01F80162817381072E000C880B990BD3
:102860000E947E1EA50194010E942F1D0E94461EFB
:10287000F801738362834C0C5D1C6E1C7F1CE79611
:102880002EAD3FADE797A9968EAD9FADA9972817BE
:10289000390709F09ACF92E0290E311C0E5F1F4FC5
:1028A000E4E0DE0EE11CF11CC114F4E3DF06E104F8
:1028B000F10409F07FCF80910101882309F423C13D
:1028C000C12CD12C7601E996EEADFFADE9972190B0
:1028D0003190E996FFAFEEAFE997B101032C000C00
:1028E000880B990B0E947E1EAB966CAF7DAF8EAFAE
:1028F0009FAFAB97A796EEADFFADA79760817181B3
:10290000072E000C880B990B0E947E1EAB962CADF7
:102910003DAD4EAD5FADAB970E94D41D0E949B1D97
:102920009B01AC010E94A11F20E030E040E85FE382
:102930000E942F1D0E9414204B015C01B10137FE43
:1029400004C06627772762197309072E000C880BCD
:10295000990B0E947E1EA50194010E94A11F2B01CC
:102960003C0120E030E046E953E40E94941F181631
:102970000CF0B1C0AD96AEACBFACAD97AF961FAE8C
:102980001EAEAF97E0961FAEE097E2961FAEE297BD
:10299000E6961FAEE697EA961FAEEA9710E000E0D3
:1029A000F50164817581072E000C880B990B0E943C
:1029B0007E1E9B01AC01C301B2010E942E1D4B0182
:1029C000EB968FAFEB97EC969FAFEC97E0962FAD21
:1029D000E097E2963FADE297E6964FADE697EA962E
:1029E0005FADEA970E94941F1816B4F4E0968FAE7C
:1029F000E097E2969FAEE297EB96FFADEB97E696F7
:102A0000FFAFE697EC962FADEC97EA962FAFEA97DB
:102A1000AF961FAF0EAFAF970F5F1F4F36E0A30EFD
:102A2000B11C0A30110509F0BBCFE6E0AF968EADC0
:102A30009FADAF97E89F8001E99F100D11244801D9
:102A4000F4E08F0E911CAD962EAD3FADAD97820E8A
:102A5000931E5901A00EB11EC701B60122E330E05A
:102A600040E050E00E94A320F501318320830E5FF7
:102A70001F4FAD962EAD3FADAD97020F131FA7961A
:102A8000EEADFFADA79760817181072E000C880B1A
:102A9000990B121413040CF07CC00E947E1EAB969E
:102AA0002CAD3DAD4EAD5FADAB970E94D41D0E94E5
:102AB0009B1D23E333E345E652E40E94A11F0E94DD
:102AC000461EF80171836083C301B2010E94461E55
:102AD000F40171836083A7962EAD3FADA7972E5F5B
:102AE0003F4FA7963FAF2EAFA7973CE6C30E31E10D
:102AF000D31EE11CF11C80E1C81681EDD806E1046B
:102B0000F10409F0E0CE8AE090E0AD96EEADFFADC5
:102B1000AD9730E020E028173907FCF44681578153
:102B20006081718146175707A4F4778366835183C8
:102B300040834085518562817381718760875383AB
:102B4000428342855385648175817387628755838B
:102B500044832F5F3F4F3696DECF0197B1F6C558BD
:102B6000DF4F0FB6F894DEBF0FBECDBFDF91CF9120
:102B70001F910F91FF90EF90DF90CF90BF90AF909B
:102B80009F908F907F906F905F904F903F902F908D
:102B900008950E947E1EAB962CAD3DAD4EAD5FAD4F
:102BA000AB970E94D41D0E949B1D23E333E345E6AF
:102BB00052E40E94A11F20E030E044E353E40E946D
:102BC0002F1D7DCFFC0101900020E9F73197AF0167
:102BD000481B590BBC018EEE94E00C947E068F923C
:102BE0009F92AF92BF92CF92DF92EF92FF920F939C
:102BF0001F93CF93DF93CDB7DEB7A1970FB6F894AD
:102C0000DEBF0FBECDBF6B017C01F7FE41C06DE2A0
:102C10008EEE94E00E941E078C0122273327A90123
:102C20002C193D094E095F0919A2CE0181967C013C
:102C30009AE0892E912CA12CB12CCA01B901A501D1
:102C400094010E948120605DF70162937F0121154C
:102C500031054105510589F790E080E0309719F082
:102C6000CF010E94E215800F911FA1960FB6F89434
:102C7000DEBF0FBECDBFDF91CF911F910F91FF90AF
:102C8000EF90DF90CF90BF90AF909F908F9008957E
:102C9000AC019B0119A28E010F5D1F4F8AE0C82E67
:102CA000D12CE12CF12CCA01B901A70196010E9497
:102CB0008120605DF80162938F0121153105410586
:102CC000510589F790E080E0309779F2CF010E94BA
:102CD000E215CBCF4F925F926F927F92AF92BF92ED
:102CE000CF92DF92EF92FF920F931F93CF93DF93D8
:102CF000CDB7DEB7C054D1400FB6F894DEBF0FBEDB
:102D0000CDBF82ECE82E81E0F82E9EE5C92E91E041
:102D1000D92E00E011E0A12CBB24B3940E9425061B
:102D20007093270260932602013081E018070CF4AB
:102D30007BC0083791E019070CF47DC08EE00E943B
:102D40000D06F701819391937F018FE00E940D069C
:102D5000F601819391936F010E942506F6E2EF162A
:102D6000F2E0FF06D9F684E6BE016F5F7F4FFB01FC
:102D7000982F11929A95E9F76E01E5E6CE0ED11CD7
:102D8000F60111928A95E9F77E01F9ECEF0EF11C3C
:102D90008CE3F701982F11929A95E9F78E010B5F5A
:102DA0001E4FF80111928A95E9F7A70182EC91E094
:102DB0000E948A13A801B6018EE591E00E948A1351
:102DC00081E0809301015801FCE3AF0EB11CF701D3
:102DD000C080D180F801808191818C0D9D1D8A3C3D
:102DE00091050CF442C0F70162817381F801828180
:102DF0009381681B790B072E000C880B990B0E949E
:102E00007E1E2B013C0120E030E044E353E40E94AD
:102E1000941F87FD15C020E030E044EB53E4C3016C
:102E2000B2010E942E1DEDCFC501801B910B88378A
:102E300091050CF083CF8EE00E940D068C0174CFBB
:102E400020E030E044E353ECC301B2010E94CA1D0C
:102E500018165CF020E030E044EB53E4C301B2010B
:102E60000E942F1D2B013C01EBCFB601DD0C880B1E
:102E7000990B0E94EF1588E591E00E94E215F80198
:102E800060817181072E000C880B990B0E94EF1551
:102E900088E591E00E94E215F70162817381072EB7
:102EA000000C880B990B0E94EF1588E591E00E94B9
:102EB000E215F80162817381072E000C880B990BD3
:102EC0000E94EF158AE591E00E94E215F6E0EF0E10
:102ED000F11C0A5F1F4FA016B10609F078CFC05C45
:102EE000DE4F0FB6F894DEBF0FBECDBFDF91CF919E
:102EF0001F910F91FF90EF90DF90CF90BF90AF9018
:102F00007F906F905F904F9008950E94ED2185ED26
:102F10008093BC008091690290916A02A0916B023B
:102F2000B0916C020796A11DB11D23E0B695A7953F
:102F3000979587952A95D1F72091BC0024FD03C071
:102F40001092B20208954091690250916A02609114
:102F50006B0270916C02452B462B472B69F300974F
:102F6000A105B10541F02AE22A95F1F700C00197C9
:102F7000A109B109E1CF809168020C9420101F9241
:102F80000F920FB60F9211242F933F938F939F931D
:102F9000AF93BF938091E2049091E304A091E40485
:102FA000B091E5043091E10423E0230F2D3758F56B
:102FB0000196A11DB11D2093E1048093E20490933A
:102FC000E304A093E404B093E5048091E6049091B7
:102FD000E704A091E804B091E9040196A11DB11D98
:102FE0008093E6049093E704A093E804B093E90487
:102FF000BF91AF919F918F913F912F910F900FBEF5
:103000000F901F90189526E8230F0296A11DB11D61
:10301000D2CF1F920F920FB60F9211242F933F938E
:103020004F935F936F937F938F939F93AF93BF93D0
:10303000EF93FF938EEE94E00E94FC06FF91EF91D8
:10304000BF91AF919F918F917F916F915F914F91C0
:103050003F912F910F900FBE0F901F9018951F92C8
:103060000F920FB60F9211242F938F939F93EF938C
:10307000FF93E091FE04F091FF048081E09104054C
:10308000F091050582FD1BC09081809107058F5F3F
:103090008F7320910805821741F0E0910705F0E059
:1030A000E251FB4F958F80930705FF91EF919F9120
:1030B0008F912F910F900FBE0F901F9018958081C8
:1030C000F4CF1F920F920FB60F9211242F933F93BC
:1030D0004F935F936F937F938F939F93AF93BF9320
:1030E000EF93FF938091B900887F803609F44AC03E
:1030F000F0F5883209F4A7C018F5803109F49BC0B7
:10310000B8F4882309F4F9C0883009F494C0FF9119
:10311000EF91BF91AF919F918F917F916F915F914F
:103120004F913F912F910F900FBE0F901F901895C8
:10313000883109F488C0803251F78093B10214C0FD
:10314000803409F49DC040F48033B9F38833F9F634
:103150008093B10285ECB0C0803509F485C0883514
:1031600009F496C0883499F60E948717D0CF883921
:1031700009F48CC038F5883729F050F4883611F0FE
:10318000803729F683E08093B2021092B00257C0D4
:10319000883809F47BC0803919F0803809F0B7CF3E
:1031A0008091B002803208F071C0E091B00281E0FD
:1031B0008E0F8093B0028091BB00F0E0E057FD4F8E
:1031C00080833DC0803B39F0E0F4803A09F479C057
:1031D000883A09F09CCF84E08093B20210928F026B
:1031E00010928E02E091DB02F091DC020995809151
:1031F0008E0281110FC081E080938E0210926E02C8
:1032000009C0803C09F4A6CF883C09F4A3CF883BD1
:1032100009F07DCFE0918F0281E08E0F80938F02C5
:10322000F0E0E259FD4F80818093BB0090918F02C6
:1032300080918E0229C08091D7028093BB0085ECDB
:103240008093BC0064CF9091D6028091D5029817EC
:1032500058F5E091D60281E08E0F8093D602F0E01F
:10326000EB54FD4F8081E9CFE091D60281E08E0FD3
:103270008093D6028091BB00F0E0EB54FD4F808339
:103280009091D6028091D5029817C8F285E8D8CFE0
:10329000E091D60281E08E0F8093D6028091BB0030
:1032A000F0E0EB54FD4F80838091B40281115CCF3C
:1032B00081E08093B30284EA8093BC001092B20252
:1032C00026CF85EC8093BC001092B2028091B002B0
:1032D000803230F4E091B002F0E0E057FD4F108210
:1032E0006091B00270E0E091D902F091DA0280E9D9
:1032F00092E009951092B0020ACF1092B10234CF39
:10330000EEEEF4E01382128248EE53E060E070E0EB
:1033100044835583668377838CE091E09183808337
:1033200085EC90E09587848784EC90E0978786878A
:1033300080EC90E0918B808B81EC90E0938B828B82
:1033400082EC90E0958B848B86EC90E0978B868B5B
:10335000118E128E138E148EABE8B5E013961C926C
:103360001E92129714964D935D936D937C931797CD
:103370008EE191E011969C938E93E7E9F5E013823C
:10338000128220E830E03583248380E490E0978344
:1033900086833187208793878287168A15861486CD
:1033A0001786168681E0858B848B2FEF3FEF338B5A
:1033B000228B318B208B878B108E128E118E80E3A7
:1033C00091E091838083148E138EB68FA58F10A207
:1033D000178E8FEF84A385A386A387A380A780E899
:1033E0009AE1A6E0B0E085AB96ABA7ABB0AF80EAC0
:1033F00096E8A1E0B0E081AF92AFA3AFB4AF80E5B3
:1034000086AF17AE0895789484B5826084BD84B584
:10341000816084BD85B5826085BD85B5816085BDCF
:1034200080916E00816080936E0010928100809187
:10343000810082608093810080918100816080930F
:103440008100809180008160809380008091B10034
:1034500084608093B1008091B00081608093B0005F
:1034600080917A00846080937A0080917A008260F3
:1034700080937A0080917A00816080937A008091B5
:103480007A00806880937A001092C100E091FE0477
:10349000F091FF0482E08083E091FA04F091FB0454
:1034A0001082E091FC04F091FD048FEC8083109277
:1034B0000605E0910205F091030586E08083E09126
:1034C0000005F0910105808180618083E091000515
:1034D000F0910105808188608083E0910005F09182
:1034E0000105808180688083E0910005F0910105ED
:1034F00080818F7D80838091B6059091B705892B5F
:1035000009F440C020919D0530919E05C9010796A0
:1035100097FD0796C3E095958795CA95E1F72091A9
:103520009B0530919C05829FA001839F500D929F27
:10353000500D112470E060E08091B6059091B705C0
:103540000E94F22120919D0530919E0580919B055E
:1035500090919C05213231050CF07BC0B90160527D
:10356000710977FF02C06F5F7F4F7595679583572D
:10357000910997FD019600E210E023E730E046ED67
:1035800055E07AC020919D0530919E05C9010796AE
:1035900097FD0796B3E095958795BA95E1F7209149
:1035A0009B0530919C05AC01429FC001439F900D4B
:1035B000529F900D11240E94C8209093B7058093CC
:1035C000B605892B09F09ECF1092000160E08EE0D5
:1035D0000E94DC0560E08FE00E94DC050FED12E048
:1035E000D0E0C0E0BE010D2E000C880B990B0E94AC
:1035F0007E1E26E53EE049EC5FE30E94A11F20E02D
:1036000030E040E85BE30E94A11F0E94CF1D20E054
:1036100030E04AE754E40E94A11F0E94461EF801D0
:10362000619371938F012196C115F1E0DF07D1F607
:103630001092E0041092DF04C0E0D0E00E946A160D
:103640002097E1F30E94E8068823C1F30E9400005E
:10365000F5CFB9016054710977FF02C06F5F7F4FEA
:10366000759567958255910997FD019600E410E0E4
:1036700022E530E046EB57E0959587950E94CC0E09
:1036800082E08093B9058091B4059091B505892BAE
:1036900009F4DFC08CE38093B8051092DE0210922B
:1036A000DD021092EB041092EA040E9402108CE7F3
:1036B00096E09093DC028093DB028DE796E0909396
:1036C000DA028093D9028091BF0587FD1EC061E0B8
:1036D0000E94DC0561E08091BF050E94900561E0D9
:1036E00070E080E090E00E944A0660E08091BF05B3
:1036F0000E9490056AE070E080E090E00E944A0637
:1037000061E08091BF050E9490058091B405909181
:10371000B505892B09F45CC12091CC053091CD050C
:103720004091CE055091CF0560E074E284EF90E0C7
:103730000E94812020513109410951095695479530
:10374000379527952093B80064E082ED95E00E94BC
:10375000AD1160919D05615087E995E00E9464126A
:1037600064E08EEC95E00E94AD118091B90564E1B2
:10377000813009F460E187E995E00E94641264E019
:103780008AEC95E00E94AD118FE88093D40580917A
:103790009B0590919C058038910509F032C180917C
:1037A0009D0590919E058034910509F03AC1809164
:1037B000B905813009F423C18FEC8093D405C2E1AF
:1037C0006AED87E995E00E9464126C2F87E995E025
:1037D0000E94641261E887E995E00E94641260919A
:1037E000D40587E995E00E94641269ED87E995E0C8
:1037F0000E9464128091B90561EF813009F462E2A0
:1038000087E995E00E94641266E084EC95E00E94EE
:10381000AD118091B4059091B505892B09F405C1CE
:103820002091D0053091D1054091D2055091D3051A
:1038300060E074E284EF90E00E9481202051310921
:103840004109510956954795379527952093B8001A
:10385000BBCE61E08091BD050E94DC0561E08091F6
:10386000BE050E94DC058091BD05082E000C990B59
:10387000FC01E657F54FE491F0E0EE0FFF1FE05832
:10388000F54F259134913093C5052093C405FC0173
:10389000E256F54FE491E093CA058091BE05082EEB
:1038A000000C990BFC01E657F54FE491F0E0EE0FA8
:1038B000FF1FE058F54FA591B491B093C705A093B1
:1038C000C605FC01E256F54FE491E093CB058C91DF
:1038D000E82BEC938091B2059091B305892B09F404
:1038E00034C0CFB7F8948091D802811127C0E4E9A1
:1038F000FAE08491E8EAFAE09491E82FF0E0EE0F24
:10390000FF1FEA58F54FA591B491EC91E92321F4FA
:1039100061E08AE00E94900561E08AE00E94DC0597
:103920008CB580618CBD8CB580648CBD61E08DE010
:103930000E94DC0561E08BE00E94DC058091D802EA
:103940008F5F8093D802CFBFBECE61E08091BB0570
:103950000E94DC0561E08091BC050E94DC0580913D
:10396000BB05082E000C990BFC01E657F54FE491BE
:10397000F0E0EE0FFF1FE058F54F259134913093A2
:10398000C1052093C005FC01E256F54FE491E09398
:10399000C8058091BC05082E000C990BFC01E65768
:1039A000F54FE491F0E0EE0FFF1FE058F54FA591C1
:1039B000B491B093C305A093C205FC01E256F54F44
:1039C000E491E093C9058C91E095E823EC937BCEDC
:1039D0008091B2059091B305892B31F08091D50586
:1039E0009091D6050E94E209E091C605F091C705C5
:1039F00090818091CB05809589238083A5CE8FE926
:103A0000DCCE8036910569F480919D0590919E05EC
:103A1000409739F48091B905813029F08FEA80937D
:103A2000D405C2E0CDCE80E1FACFE091C605F09199
:103A3000C70580819091CB05892B8083C5CD80E31C
:103A400091E090939805809397058091B6059091A9
:103A5000B705009711F00C94642108955058BB27C6
:103A6000AA270E94461D0C94461F0E940D1F38F085
:103A70000E94141F20F039F49F3F19F426F40C948F
:103A8000E31E0EF4E095E7FB0C94DD1EE92F0E9487
:103A90006B1F58F3BA17620773078407950720F066
:103AA00079F4A6F50C948D1F0EF4E0950B2EBA2F29
:103AB000A02D0B01B90190010C01CA01A001112434
:103AC000FF27591B99F0593F50F4503E68F11A16E0
:103AD000F040A22F232F342F4427585FF3CF469571
:103AE00037952795A795F0405395C9F77EF41F1693
:103AF000BA0B620B730B840BBAF09150A1F0FF0F5D
:103B0000BB1F661F771F881FC2F70EC0BA0F621F48
:103B1000731F841F48F4879577956795B795F79538
:103B20009E3F08F0B0CF9395880F08F09927EE0FCD
:103B3000979587950895DF93DD27B92FBF7740E8E4
:103B40005FE31616170648075B0718F4D92F0E9483
:103B5000991F9F938F937F936F930E945420E8E661
:103B6000F0E00E94E61E0E94461F2F913F914F9168
:103B70005F910E94B41FDD2351F09058A2EA2AED14
:103B80003FE049EC5FE3D0785D270E94461DDF915E
:103B90000C94461F0E94B91E08F481E008950E940B
:103BA0001D1FE3950C94571F0E94E81D0C94461F9F
:103BB0000E94141F58F00E940D1F40F029F45F3F2F
:103BC00029F00C94DD1E51110C948E1F0C94E31EF1
:103BD0000E946B1F68F39923B1F3552391F3951B52
:103BE000550BBB27AA2762177307840738F09F5F1E
:103BF0005F4F220F331F441FAA1FA9F335D00E2E8B
:103C00003AF0E0E832D091505040E695001CCAF7F7
:103C10002BD0FE2F29D0660F771F881FBB1F2617BA
:103C200037074807AB07B0E809F0BB0B802DBF0191
:103C3000FF2793585F4F3AF09E3F510578F00C9460
:103C4000DD1E0C948E1F5F3FE4F3983ED4F38695FF
:103C500077956795B795F7959F5FC9F7880F911D81
:103C60009695879597F90895E1E0660F771F881F6D
:103C7000BB1F621773078407BA0720F0621B730B20
:103C8000840BBA0BEE1F88F7E09508950E944D1E35
:103C90006894B1110C948E1F08950E94731F88F0D0
:103CA0009F5798F0B92F9927B751B0F0E1F0660F00
:103CB000771F881F991F1AF0BA95C9F714C0B13041
:103CC00091F00E948D1FB1E008950C948D1F672F15
:103CD000782F8827B85F39F0B93FCCF38695779570
:103CE0006795B395D9F73EF4909580957095619559
:103CF0007F4F8F4F9F4F0895E89409C097FB3EF484
:103D000090958095709561957F4F8F4F9F4F992328
:103D1000A9F0F92F96E9BB279395F69587957795A6
:103D20006795B795F111F8CFFAF4BB0F11F460FF66
:103D30001BC06F5F7F4F8F4F9F4F16C0882311F0BE
:103D400096E911C0772321F09EE8872F762F05C0D2
:103D5000662371F096E8862F70E060E02AF09A956D
:103D6000660F771F881FDAF7880F9695879597F962
:103D70000895990F0008550FAA0BE0E8FEEF1616FC
:103D80001706E807F907C0F012161306E407F5074F
:103D900098F0621B730B840B950B39F40A2661F0C3
:103DA000232B242B252B21F408950A2609F4A14066
:103DB000A6958FEF811D811D089597F99F6780E873
:103DC00070E060E008959FEF80EC0895DF93CF935B
:103DD0001F930F93FF92EF92DF927B018C01689407
:103DE00006C0DA2EEF010E94B41FFE01E894A591EF
:103DF0002591359145915591A6F3EF010E94461DFD
:103E0000FE019701A801DA9469F7DF90EF90FF9027
:103E10000F911F91CF91DF91089500240A941616F7
:103E2000170618060906089500240A9412161306A8
:103E30001406050608950C94E31E0E94731FD8F320
:103E4000E894E0E0BB279F57F0F02AED3FE049EC13
:103E500006C0EE0FBB0F661F771F881F28F0B23A0F
:103E600062077307840728F0B25A620B730B840B46
:103E7000E3959A9572F7803830F49A95BB0F661FD8
:103E8000771F881FD2F790480C945A20092E03946C
:103E9000000C11F4882352F0BB0F40F4BF2B11F437
:103EA00060FF04C06F5F7F4F8F4F9F4F0895EF9368
:103EB000E0FF07C0A2EA2AED3FE049EC5FEB0E9479
:103EC000461D0E94461F0F90039401FC9058E5E99F
:103ED000F0E00C946D2057FD9058440F551F59F099
:103EE0005F3F71F04795880F97FB991F61F09F3FE7
:103EF00079F087950895121613061406551FF2CF10
:103F00004695F1DF08C0161617061806991FF1CF5F
:103F100086957105610508940895E894BB27662786
:103F20007727CB0197F908950E94B91E08F48FEF07
:103F300008959B01AC0160E070E080E89FE30C9481
:103F4000D41D0E94B41F0C94461F0E940D1F38F010
:103F50000E94141F20F0952311F00C94DD1E0C9488
:103F6000E31E11240C948E1F0E946B1F70F3959F0B
:103F7000C1F3950F50E0551F629FF001729FBB2760
:103F8000F00DB11D639FAA27F00DB11DAA1F649FFC
:103F90006627B00DA11D661F829F2227B00DA11DAF
:103FA000621F739FB00DA11D621F839FA00D611D35
:103FB000221F749F3327A00D611D231F849F600D56
:103FC000211D822F762F6A2F11249F5750409AF07F
:103FD000F1F088234AF0EE0FFF1FBB1F661F771F0B
:103FE000881F91505040A9F79E3F510580F00C94D6
:103FF000DD1E0C948E1F5F3FE4F3983ED4F386954C
:1040000077956795B795F795E7959F5FC1F7FE2B75
:10401000880F911D9695879597F9089519F416F4D0
:104020000C94E31E0C9458200E94731FB8F399233C
:10403000C9F3B6F39F57550B87FF0E9466200024F3
:10404000A0E640EA900180585695979528F4805C48
:10405000660F771F881F20F026173707480730F4B0
:10406000621B730B840B202931294A2BA6951794C8
:104070000794202531254A2758F7660F771F881F98
:1040800020F026173707480730F4620B730B840BB8
:10409000200D311D411DA09581F7B901842F915844
:1040A000880F9695879508959B01AC010C94A11FEC
:1040B0009F3F31F0915020F4879577956795B7959C
:1040C000880F911D9695879597F9089591505040C6
:1040D000660F771F881FD2F708959F938F937F9362
:1040E0006F93FF93EF939B01AC010E94A11FEF918F
:1040F000FF910E94E61E2F913F914F915F910C948A
:10410000A11FA1E21A2EAA1BBB1BFD010DC0AA1FF5
:10411000BB1FEE1FFF1FA217B307E407F50720F030
:10412000A21BB30BE40BF50B661F771F881F991FAB
:104130001A9469F760957095809590959B01AC01F4
:10414000BD01CF010895052E97FB1EF400940E9437
:10415000BA2057FD07D00E94812007FC03D04EF4FF
:104160000C94BA2050954095309521953F4F4F4F74
:104170005F4F089590958095709561957F4F8F4F13
:104180009F4F0895EE0FFF1F0590F491E02D0994C5
:104190000F931F93CF93DF938230910510F482E049
:1041A00090E0E091D905F091DA0530E020E0B0E050
:1041B000A0E0309799F42115310509F44AC0281B75
:1041C000390B24303105D8F58A819B816115710541
:1041D00089F1FB0193838283FE0111C040815181EB
:1041E0000281138148175907E0F04817590799F4DD
:1041F000109761F012960C93129713961C933296B7
:10420000CF01DF91CF911F910F9108950093D905B0
:104210001093DA05F4CF2115310551F042175307F9
:1042200038F0A901DB019A01BD01DF01F801C1CF1E
:10423000EF01F9CF9093DA058093D905CDCFFE0138
:10424000E20FF31F81939193225031093983288320
:10425000D7CF2091D7053091D805232B41F4209159
:104260000401309105013093D8052093D7052091A2
:104270000201309103012115310541F42DB73EB7FC
:104280004091060150910701241B350BE091D705A1
:10429000F091D805E217F307A0F42E1B3F0B281767
:1042A000390778F0AC014E5F5F4F2417350748F0AF
:1042B0004E0F5F1F5093D8054093D705819391937C
:1042C0009FCFF0E0E0E09CCFCF93DF930097E9F041
:1042D000FC01329713821282A091D905B091DA05C0
:1042E000ED0130E020E01097A1F420813181820FB0
:1042F000931F2091D7053091D8052817390709F069
:1043000061C0F093D805E093D705DF91CF91089570
:10431000EA01CE17DF07E8F54A815B819E0141156E
:104320005105B1F7E901FB83EA8349915991C40F23
:10433000D51FEC17FD0761F4808191810296840FEF
:10434000951FE90199838883828193819B838A8366
:10435000F0E0E0E012968D919C9113970097B9F5EB
:104360002D913C911197CD010296820F931F2091C0
:10437000D7053091D8052817390739F6309751F508
:104380001092DA051092D905B093D805A093D705FD
:10439000BCCFD383C28340815181840F951FC8173E
:1043A000D90761F44E5F5F4F88819981480F591F8B
:1043B000518340838A819B819383828321153105B8
:1043C00009F0B0CFF093DA05E093D9059ECFFD0157
:1043D000DC01C0CF13821282D7CF81E090E0F89445
:1043E0000C94F921DC0101C06D9341505040E0F77D
:1043F000089515E0C4E6D5E004C0FE010E94C22085
:104400002196C536D107C9F7F894FFCF0101000006
:10441000DB058000000000001E077E06AB066B0770
:10442000DC06BA06CE060000000097106A101D13C5
:104430008F0563105010411000000000200C7E0614
:104440001D13DA0F32098F05C50E9D0EB90EAD0E84
:104450002D0F8F05E609C712A208EB08E60DC90D5E
:0A446000510DF20C20000D0A0000BF
:107E0000112484B714BE81FFF0D085E080938100F7
:107E100082E08093C00088E18093C10086E0809377
:107E2000C20080E18093C4008EE0C9D0259A86E02C
:107E300020E33CEF91E0309385002093840096BBD3
:107E4000B09BFECF1D9AA8958150A9F7CC24DD24C4
:107E500088248394B5E0AB2EA1E19A2EF3E0BF2EE7
:107E6000A2D0813461F49FD0082FAFD0023811F036
:107E7000013811F484E001C083E08DD089C08234E0
:107E800011F484E103C0853419F485E0A6D080C0E4
:107E9000853579F488D0E82EFF2485D0082F10E0AE
:107EA000102F00270E291F29000F111F8ED06801E7
:107EB0006FC0863521F484E090D080E0DECF843638
:107EC00009F040C070D06FD0082F6DD080E0C81688
:107ED00080E7D80618F4F601B7BEE895C0E0D1E017
:107EE00062D089930C17E1F7F0E0CF16F0E7DF06D8
:107EF00018F0F601B7BEE89568D007B600FCFDCFD4
:107F0000A601A0E0B1E02C9130E011968C91119780
:107F100090E0982F8827822B932B1296FA010C0160
:107F200087BEE89511244E5F5F4FF1E0A038BF0790
:107F300051F7F601A7BEE89507B600FCFDCF97BE46
:107F4000E89526C08437B1F42ED02DD0F82E2BD052
:107F50003CD0F601EF2C8F010F5F1F4F84911BD097
:107F6000EA94F801C1F70894C11CD11CFA94CF0C13
:107F7000D11C0EC0853739F428D08EE10CD085E9AC
:107F80000AD08FE07ACF813511F488E018D01DD067
:107F900080E101D065CF982F8091C00085FFFCCF94
:107FA0009093C60008958091C00087FFFCCF809118
:107FB000C00084FD01C0A8958091C6000895E0E648
:107FC000F0E098E1908380830895EDDF803219F02E
:107FD00088E0F5DFFFCF84E1DECF1F93182FE3DFCA
:107FE0001150E9F7F2DF1F91089580E0E8DFEE27F6
:047FF000FF270994CA
:027FFE00040479
:00000001FF
